:020000040800F2
:100000000000012025230008A5220008A7220008DF
:10001000A9220008AB220008AD2200080000000061
:10002000000000000000000000000000AF220008F7
:10003000B122000800000000B3220008B522000829
:100040007523000875230008752300087523000830
:100050007523000875230008752300087523000820
:100060007523000875230008752300087523000810
:100070007523000875230008752300087523000800
:1000800075230008752300087523000875230008F0
:1000900075230008752300087523000875230008E0
:1000A00075230008752300087523000875230008D0
:1000B00075230008752300087523000875230008C0
:1000C00075230008752300087523000875230008B0
:1000D00075230008752300087523000875230008A0
:1000E0007523000875230008752300087523000890
:1000F0007523000875230008752300087523000880
:1001000075230008000000000000000075230008AF
:10011000752300087523000875230008752300085F
:10012000752300087523000875230008752300084F
:10013000752300087523000800000000000000007F
:1001400075230008752300087523000800000000CF
:10015000000000000000000000000000000000009F
:10016000752300087523000875230008752300080F
:1001700075230008752300087523000875230008FF
:10018000752300087523000800000000000000002F
:0401900075230008CB
:1001940010B5054C237833B9044B13B10448AFF3BD
:1001A40000800123237010BD0C000020000000001B
:1001B400D023000808B5034B1BB103490348AFF330
:1001C400008008BD0000000010000020D0230008BB
:1001D40010B504460E4B18784FF47A73B3FBF0F362
:1001E4000C4A1068B0FBF3F000F080F868B90F2CEB
:1001F40001D901200AE0002221464FF0FF3000F02F
:1002040041F8034B5C60002000E0012010BD00BFFA
:10021400000000200800002008B5074A136843F0D6
:1002240010031360032000F01BF80020FFF7D0FF39
:1002340001F080FF002008BD00200240034A11683D
:10024400034B1B780B441360704700BF2800002049
:1002540000000020014B1868704700BF28000020F0
:10026400074AD36823F4E0631B041B0C000200F468
:10027400E060184340F0BF6040F40030D060704745
:1002840000ED00E030B4174BDB68C3F30223C3F185
:100294000704042C28BF04241D1D062D18D9033B74
:1002A4004FF0FF3505FA04F421EA0401994005FAF8
:1002B40003F322EA0303194300280BDB0901C9B243
:1002C40000F1604000F5614080F8001330BC7047D5
:1002D4000023E5E700F00F000901C9B2024B1954ED
:1002E400F4E700BF00ED00E014ED00E00138B0F1E8
:1002F400807F0AD2064B5860064AF02182F8231008
:100304000020986007221A6070470120704700BFE0
:1003140010E000E000ED00E0042805D0054A136871
:1003240023F0040313607047024A136843F0040384
:100334001360704710E000E0F0B482B0002336E0B0
:10034400062400E00024B4403C430235614E46F8E4
:100354002540614C2568D44304EA05064F6817F428
:10036400803F01D042EA05065B4D2E606D6804EAC9
:1003740005064F6817F4003F01D042EA0506564DC2
:100384006E60AD6804EA05064F6817F4801F01D05B
:1003940042EA0506504DAE60ED682C404E6816F4F6
:1003A400001F01D042EA05044B4AD46001330A68B5
:1003B40032FA03F400F08B8001249C402240F5D0F3
:1003C4004D68022D01D0122D10D1DE08083650F8E8
:1003D40026C003F00705AF000F25BD402CEA050C2D
:1003E4000D69BD4045EA0C0540F8265006685F00DB
:1003F4000325BD40ED4305EA060C4E6806F00306EE
:10040400BE4046EA0C0606604E6806F1FF3CBCF1AD
:10041400010F03D9112E01D0122E10D1866805EADE
:10042400060CCE68BE4046EA0C068660466826EA9C
:1004340004044E68C6F300169E4026434660C46812
:1004440025408C68BC402C43C4604C6814F0805F29
:10045400ACD0224CA56945F00105A561A46904F05E
:1004640001040194019C9D08AE1C1A4C54F826709A
:1004740003F00304A6000F24B44027EA0407B0F1F4
:10048400904F3FF45FAF164CA04216D004F5806441
:10049400A04214D004F58064A04212D004F5806414
:1004A400A04210D004F58064A0420ED004F580640C
:1004B400A0423FF445AF072445E7012443E7022463
:1004C40041E703243FE704243DE705243BE702B06A
:1004D400F0BC7047000001400004014000100240DD
:1004E40000040048002800F0F98270B582B0044688
:1004F400036813F0010F3DD0B44B5B6803F00C03A9
:10050400042B20D0B14B5B6803F00C03082B13D0F1
:100514006368B3F5803F6AD0002B40F08D8003F10F
:10052400804303F504331A6822F480321A601A688F
:1005340022F480221A605FE0A44B5B6803F4C033AA
:10054400B3F5803FE4D14FF4003393FAA3F39F4B08
:1005540019684FF4003393FAA3F3B3FA83F303F067
:100564001F03012202FA03F30B4203D06368002B3A
:1005740000F0BC82236813F0020F00F0C180934B9B
:100584005B6813F00C0F00F09780904B5B6803F0EE
:100594000C03082B00F08880E368002B00F0EE8049
:1005A400012292FAA2F3B3FA83F303F1845303F51D
:1005B40084139B001A60FFF74DFE0546022393FA4D
:1005C400A3F3824B1968022393FAA3F3B3FA83F3D8
:1005D40003F01F03012202FA03F30B4240F0BF8031
:1005E400FFF738FE401B0228E8D9032085E2774A4A
:1005F400136843F4803313606368002B36D0FFF72D
:1006040029FE05464FF4003393FAA3F36F4B1968A0
:100614004FF4003393FAA3F3B3FA83F303F01F0305
:10062400012202FA03F30B42A4D1FFF713FE401B8D
:100634006428E7D9032060E2B3F5A02F09D0634B07
:100644001A6822F480321A601A6822F480221A602E
:10065400D2E703F18043A3F53C331A6842F48022C5
:100664001A601A6842F480321A60C5E7FFF7F2FD97
:1006740005464FF4003393FAA3F3544B19684FF42F
:10068400003393FAA3F3B3FA83F303F01F030122B5
:1006940002FA03F30B423FF46DAFFFF7DBFD401B9F
:1006A4006428E6D9032028E2484B5B6803F4C0338E
:1006B400B3F5004F7FF470AF022393FAA3F3434BD7
:1006C4001968022393FAA3F3B3FA83F303F01F0325
:1006D400012202FA03F30B4204D0E368934201D0EF
:1006E40001200AE23948036823F0F8032169F8225B
:1006F40092FAA2F2B2FA82F201FA02F2134303600E
:10070400236813F0080F00F08D806369002B61D01B
:10071400012191FAA1F2B2FA82F22D4B13449B000B
:100724001960FFF797FD0546022393FAA3F293FAA3
:10073400A3F293FAA3F2254A516A93FAA3F3B3FA04
:1007440083F303F01F03012202FA03F30B4269D17E
:10075400FFF780FD401B0228E6D90320CDE11B48AA
:10076400036823F0F8032169F82292FAA2F2B2FA9C
:1007740082F201FA02F213430360C1E7012393FA00
:10078400A3F3B3FA83F303F1845303F584139B00B7
:1007940000221A60FFF75EFD0546022393FAA3F3D5
:1007A4000A4B1968022393FAA3F3B3FA83F303F011
:1007B4001F03012202FA03F30B42A1D0FFF74AFD03
:1007C400401B0228E9D9032097E100BF0010024032
:1007D40020819010012292FAA2F2B2FA82F2C04B66
:1007E40013449B0000221A60FFF734FD05460223E0
:1007F40093FAA3F293FAA3F293FAA3F2B94A516AD1
:1008040093FAA3F3B3FA83F303F01F03012202FA6A
:1008140003F30B4206D0FFF71DFD401B0228E6D967
:1008240003206AE1236813F0040F00F0B380AD4B9A
:10083400DB6913F0805F20D1AA4BDA6942F0805261
:10084400DA61DB6903F080530193019B0125A64B18
:100854001B6813F4807F12D0A368012B23D073BBD1
:1008640003F1804303F504331A6A22F001021A6289
:100874001A6A22F004021A621AE00025E7E79A4A8B
:10088400136843F480731360FFF7E4FC0646964B49
:100894001B6813F4807FDFD1FFF7DCFC801B642826
:1008A400F5D9032029E18F4A136A43F00103136247
:1008B400A368002B41D0FFF7CDFC06462BE0052BA7
:1008C40009D0884B1A6A22F001021A621A6A22F0CD
:1008D40004021A62ECE7834B1A6A42F004021A62B9
:1008E4001A6A42F001021A62E2E77E4B196A022395
:1008F40093FAA3F3B3FA83F303F01F03012202FA7A
:1009040003F3194245D1FFF7A5FC801B41F288335C
:10091400984200F2ED80022393FAA3F293FAA3F330
:10092400B3FA83F35B0943F00203022BDDD0022305
:1009340093FAA3F36B4B596AD9E7FFF78BFC06468E
:1009440015E0684B196A022393FAA3F3B3FA83F30D
:1009540003F01F03012202FA03F3194219D0FFF72F
:1009640079FC801B41F28833984200F2C380022351
:1009740093FAA3F293FAA3F3B3FA83F35B0943F074
:100984000203022BDDD0022393FAA3F3554B596AD9
:10099400D9E7B5BBA369002B00F0AE80514A526879
:1009A40002F00C02082A00F0AA80022B2FD04FF08C
:1009B400807393FAA3F3B3FA83F303F1845303F537
:1009C40084139B0000221A60FFF744FC04464FF096
:1009D400007393FAA3F3434B19684FF0007393FA2F
:1009E400A3F3B3FA83F303F01F03012202FA03F320
:1009F400194271D0FFF72EFC001B0228E7D903200F
:100A04007BE0384AD36923F08053D361C2E74FF0C7
:100A1400807393FAA3F3B3FA83F303F1845303F5D6
:100A240084139B0000221A60FFF714FC05464FF064
:100A3400007393FAA3F32B4B19684FF0007393FAE6
:100A4400A3F3B3FA83F303F01F03012202FA03F3BF
:100A5400194206D0FFF7FEFB401B0228E7D903200A
:100A64004BE0204AD36A23F00F03616A0B43D3623D
:100A7400536823F47613216AE06901430B435360FE
:100A84004FF0807393FAA3F3B3FA83F303F184531F
:100A940003F584139B0001221A60FFF7DBFB044675
:100AA4004FF0007393FAA3F30E4B19684FF00073E1
:100AB40093FAA3F3B3FA83F303F01F03012202FAB8
:100AC40003F3194206D1FFF7C5FB001B0228E7D93F
:100AD400032012E0002010E000200EE00120704707
:100AE400208190100010024000700040012004E0BA
:100AF400032002E0032000E0002002B070BD0120CA
:100B0400FBE700BF10B4184B5C6804F00C03082B1F
:100B140028D104F470124FF4701393FAA3F3B3FAC8
:100B240083F322FA03F31149C85C0F4BDB6A03F029
:100B34000F030F2292FAA2F2B2FA82F2D3400B44CC
:100B44001A7C14F4803F07D1094BB3FBF2F300FB8A
:100B540003F05DF8044B7047054BB3FBF2F300FB65
:100B640003F0F6E70248F4E700100240E823000827
:100B740000127A00002800F0C08070B50446614B72
:100B84001B6803F007038B420CD25E4A136823F000
:100B940007030B431360136803F007038B4201D070
:100BA400012070BD236813F0020F06D0564A536823
:100BB40023F0F003A068034353600D46236813F049
:100BC400010F5AD06368012B2DD0022B40D0022292
:100BD40092FAA2F24C4A1068022292FAA2F2B2FAF3
:100BE40082F202F01F02012101FA02F2104200F027
:100BF400868045494A6822F0030213434B60FFF79D
:100C040029FB0646404B5B6803F00C036268B3EBB8
:100C1400820F32D0FFF71EFB801B41F288339842CB
:100C2400F0D90320BDE74FF4003292FAA2F2364A1B
:100C340010684FF4003292FAA2F2B2FA82F202F091
:100C44001F02012101FA02F20242D2D10120A8E7D7
:100C54004FF0007292FAA2F22B4A10684FF0007221
:100C640092FAA2F2B2FA82F202F01F02012101FA10
:100C740002F21042BDD1012093E7224B1B6803F01E
:100C84000703AB420CD91F4A136823F007032B4315
:100C94001360136803F00703AB4201D0012080E71F
:100CA400236813F0040F06D0174A536823F4E06353
:100CB400E1680B435360236813F0080F07D0124A0E
:100CC400536823F46053216943EAC1035360FFF777
:100CD40019FF0D4B5B6803F0F003F02292FAA2F2C5
:100CE400B2FA82F2D340094AD35CD840084B186068
:100CF4000020FFF76DFA002053E701207047012020
:100D04004FE700BF00200240001002400824000802
:100D140008000020014B1868704700BF080000203D
:100D240008B5FFF7F7FF074B5B6803F4E0634FF484
:100D3400E06292FAA2F2B2FA82F2D340024AD35C9F
:100D4400D84008BD001002401824000808B5FFF779
:100D5400E1FF074B5B6803F460534FF4605292FA6F
:100D6400A2F2B2FA82F2D340024AD35CD84008BD60
:100D74000010024018240008F0B583B0044603684C
:100D840013F4803F48D0A14BDB6913F0805F40F03F
:100D940022819E4BDA6942F08052DA61DB6903F00A
:100DA40080530193019B0125994B1B6813F4807FA9
:100DB40000F01381954B1B6A13F4407322D06268D0
:100DC40002F440729A421DD09048016A21F44076A0
:100DD4004FF4803393FAA3F2B2FA82F28D4F3A447D
:100DE40092004FF0010CC2F800C093FAA3F3B3FAD7
:100DF40083F33B449B0000221A60066211F0010F4A
:100E040040F00081814A136A23F4407361680B4304
:100E14001362002D40F02881236813F0010F06D0DF
:100E24007A4A136B23F00303A1680B43136323680B
:100E340013F0020F06D0754A136B23F44033E168B4
:100E44000B431363236813F0040F06D06F4A136B2C
:100E540023F4402321690B431363236813F0200F09
:100E640006D06A4A136B23F01003E1690B43136342
:100E7400236813F4003F06D0644A536823F48003C4
:100E8400616D0B435360236813F0400F06D05F4A33
:100E9400136B23F02003216A0B431363236813F4B9
:100EA400802F06D0594A136B23F04003616A0B4329
:100EB4001363236813F0080F06D0544A136B23F40A
:100EC400401361690B431363236813F0100F06D0BA
:100ED4004E4A136B23F44003A1690B431363236845
:100EE40013F4007F06D0494A536823F40003216BAE
:100EF4000B435360236813F0800F06D0434AD36A30
:100F040023F4F873A16A0B43D362236813F4807F3C
:100F140006D03E4AD36A23F47853E16A0B43D36282
:100F2400236813F4805F06D0384A136B23F480736C
:100F3400616B0B431363236813F4005F06D0334AD9
:100F4400136B23F40073216C0B431363236813F4B2
:100F5400801F06D02D4A136B23F08073A16B0B43C3
:100F64001363236813F4001F06D0284A136B23F07D
:100F74000073E16B0B431363236813F4800F06D0F3
:100F8400224A136B23F48063616C0B43136323685D
:100F940013F4000F06D01D4A136B23F40063A16CF5
:100FA4000B431363236813F0807F06D0174A136B37
:100FB40023F40053E16C0B431363236813F0007FA5
:100FC40059D0124A136B23F40043216D0B4313636E
:100FD400002003B0F0BD0025E6E60D4A136843F493
:100FE40080731360FFF736F90646094B1B6813F448
:100FF400807F7FF4DFAEFFF72DF9801B6428F4D9DE
:101004000320E6E7FFF726F906461BE0001002403E
:101014000070004000819010184B196A022393FA63
:10102400A3F3B3FA83F303F01F03012202FA03F3D9
:101034000B427FF4E7AEFFF70DF9801B41F28833D2
:10104400984216D8022393FAA3F293FAA3F3B3FABD
:1010540083F35B0943F00203022BDDD0022393FAEE
:10106400A3F3064B596AD9E7D36923F08053D361BC
:10107400D2E60320ADE70020ABE700BF001002403A
:1010840010B4036A046A24F001040462846924F03D
:10109400F00444EA021223F00A030B438261036260
:1010A4005DF8044B704710B4036A23F01003036225
:1010B4008469036A24F4704444EA023223F0A003EE
:1010C40043EA0113826103625DF8044B704783684D
:1010D40023F0700341F007011943816070477047A2
:1010E4000368324A904212D0B0F1804F0FD0A2F57B
:1010F400943290420BD002F58062904207D002F500
:101104009632904203D002F5E052904203D123F08C
:1011140070034A681343254A90421ED0B0F1804FB1
:101124001BD0A2F59432904217D002F5806290420F
:1011340013D002F5963290420FD002F540629042ED
:101144000BD002F58062904207D002F58062904293
:1011540003D002F50062904203D123F44073CA68BD
:10116400134323F080034A69134303608B68C3620B
:101174000B6883620D4B984213D003F500639842C9
:101184000FD003F5406398420BD003F58063984277
:1011940007D003F58063984203D003F500639842B7
:1011A40001D10B690363012343617047002C0140A3
:1011B400A8B110B5044690F83D305BB1022384F821
:1011C4003D30211D2068FFF78BFF012384F83D305B
:1011D400002010BD80F83C3000F0C4FFEEE7012091
:1011E4007047A8B110B5044690F83D305BB10223B6
:1011F40084F83D30211D2068FFF772FF012384F835
:101204003D30002010BD80F83C30FFF768FFEEE76A
:101214000120704730B4036A23F001030362036AB8
:101224004468826922F4803222F073020D682A43F2
:1012340023F002038D682B43204DA84213D005F5FB
:101244000065A8420FD005F54065A8420BD005F50E
:101254008065A84207D005F58065A84203D005F54E
:101264000065A84205D123F00803CD682B4323F081
:101274000403124DA84213D005F50065A8420FD00F
:1012840005F54065A8420BD005F58065A84207D056
:1012940005F58065A84203D005F50065A84205D18F
:1012A40024F440754C692C438D692C43446082615D
:1012B4004A684263036230BC704700BF002C01409F
:1012C40030B4036A23F010030362036A446882693A
:1012D40022F0807222F4E6420D6842EA052223F0ED
:1012E40020038D6843EA05131B4DA84207D005F57A
:1012F4000065A84203D005F5E055A84206D123F0C5
:101304008003CD6843EA051323F04003124DA8423D
:1013140013D005F50065A8420FD005F54065A84235
:101324000BD005F58065A84207D005F58065A84275
:1013340003D005F50065A84207D124F440644D6943
:1013440044EA85048D6944EA8504446082614A68FC
:101354008263036230BC7047002C014030B4036ADE
:1013640023F480730362036A4468C26922F48032FE
:1013740022F073020D682A4323F400738D6843EA54
:1013840005231C4DA84207D005F50065A84203D0EB
:1013940005F5E055A84206D123F40063CD6843EA7D
:1013A400052323F48063134DA84213D005F500658B
:1013B400A8420FD005F54065A8420BD005F580651D
:1013C400A84207D005F58065A84203D005F500655D
:1013D400A84207D124F440544D6944EA05148D69A8
:1013E40044EA05144460C2614A68C263036230BCC3
:1013F400704700BF002C014030B4036A23F48053CB
:101404000362036A4468C26922F0807222F4E642ED
:101414000D6842EA052223F400538D6843EA05333C
:10142400114DA84213D005F50065A8420FD005F56B
:101434004065A8420BD005F58065A84207D005F5A4
:101444008065A84203D005F50065A84204D124F4C0
:1014540080444D6944EA85144460C2614A68026468
:10146400036230BC704700BF002C014010B4846894
:1014740024F47F4442EA03230B43234383605DF84F
:10148400044B704790F83C30012B00F0828010B57B
:101494000446012380F83C30022380F83D30026882
:1014A40090683D4B034093600B68402B5DD010D98E
:1014B400702B40D01FD8502B4DD0602B34D1CA682C
:1014C40049682068FFF7EFFD60212068FFF7FFFD02
:1014D4002AE0102B53D008D9202B55D0302B23D100
:1014E40030212068FFF7F3FD1EE0EBB900212068EE
:1014F400FFF7EDFD18E0B3F5805F0ED0B3F5005FA4
:1015040012D1CB684A6889682068FFF7AFFF226868
:10151400936843F48043936006E02268936823F45D
:10152400803323F007039360012384F83D300020C7
:1015340084F83C0010BDCB684A6889682068FFF7CE
:1015440095FF2268936823F4803323F0770343F0F4
:1015540077039360E8E7CA6849682068FFF790FD5D
:1015640050212068FFF7B3FDDEE7CA6849682068A8
:10157400FFF786FD40212068FFF7A9FDD4E710217D
:101584002068FFF7A4FDCFE720212068FFF79FFD27
:10159400CAE70220704700BF8800FEFF30B4036A28
:1015A40023F480330362036A4468426D22F4803278
:1015B40022F070020D682A4323F400338D6843EA55
:1015C4000543114DA84213D005F50065A8420FD07C
:1015D40005F54065A8420BD005F58065A84207D003
:1015E40005F58065A84203D005F50065A84204D13D
:1015F40024F480344D6944EA0524446042654A6811
:101604008265036230BC7047002C014030B4036A29
:1016140023F480130362036A4468426D22F08072EB
:1016240022F4E0420D6842EA052223F400138D6897
:1016340043EA0553114DA84213D005F50065A842AD
:101644000FD005F54065A8420BD005F58065A8428A
:1016540007D005F58065A84203D005F50065A842CA
:1016640004D124F480244D6944EA8524446042650D
:101674004A68C265036230BC704700BF002C014059
:1016840038B590F83C30012B00F092800D460446AA
:10169400012380F83C30022380F83D30142A1ED800
:1016A400DFE802F00B1D1D1D241D1D1D381D1D1D11
:1016B4004B1D1D1D5F1D1D1D72000068FFF7AAFD57
:1016C4002268936943F0080393612268936923F0C5
:1016D400040393612268936929690B43936101238D
:1016E40084F83D30002084F83C0038BD0068FFF7E2
:1016F400E7FD2268936943F4006393612268936968
:1017040023F48063936122689369296943EA01237E
:101714009361E4E70068FFF721FE2268D36943F090
:101724000803D3612268D36923F00403D3612268D8
:10173400D36929690B43D361D1E70068FFF75CFEE5
:101744002268D36943F40063D3612268D36923F424
:101754008063D3612268D369296943EA0123D36191
:10176400BDE70068FFF71AFF2268536D43F00803D2
:1017740053652268536D23F0040353652268536D47
:1017840029690B435365AAE70068FFF73FFF226806
:10179400536D43F4006353652268536D23F48063EF
:1017A40053652268536D296943EA0123536596E71B
:1017B40002209AE790F83C30012B26D030B4012364
:1017C40080F83C30026853689568114CA24207D0F7
:1017D40004F50064A24203D004F5E054A24203D10C
:1017E40023F470034C68234323F070030C682343F1
:1017F40025F08004896821435360036899600023BD
:1018040080F83C30184630BC70470220704700BF57
:10181400002C014010B504468368026913434269F1
:101824001343C2691343016808689C4A0240134386
:101834000B602268536823F44053E1680B43536000
:10184400A369226A1A4321688B6823F43063134323
:101854008B602368924A93421FD0924A93422FD0BE
:10186400914A934246D0914A93425DD0904A934222
:1018740074D01022E169B1F5004F00F08B80082A82
:1018840000F20A81DFE812F0CE00DA00E600080177
:10189400F200080108010801FE0002F55842126B2B
:1018A40002F00302032A09D8DFE802F002040672F8
:1018B4000122DFE70422DDE70822DBE71022D9E773
:1018C40002F5E632126B02F44032B2F5803F0BD0DF
:1018D40007D9B2F5003F09D0B2F5403F08D1022242
:1018E400C8E72AB90022C5E70422C3E70822C1E7F2
:1018F4001022BFE702F5E432126B02F44022B2F583
:10190400802F0BD007D9B2F5002F09D0B2F5402FA4
:1019140008D10222AEE72AB90022ABE70422A9E7E4
:101924000822A7E71022A5E702F5E232126B02F4BF
:101934004012B2F5801F0BD007D9B2F5001F09D0B1
:10194400B2F5401F08D1022294E72AB9002291E798
:1019540004228FE708228DE710228BE702F5E0329C
:10196400126B02F44002B2F5800F0BD007D9B2F526
:10197400000F09D0B2F5400F08D102227AE72AB944
:10198400002277E7042275E7082273E7102271E743
:1019940002226FE7082A42D8DFE802F00517224145
:1019A4002D4141413800FFF7BBF96268530803EB4E
:1019B4004003B3FBF2F39BB2002023F00F02C3F306
:1019C400420313432268D36010BDFFF7BFF9626876
:1019D400530803EB4003B3FBF2F39BB20020ECE7A4
:1019E4006268530803F5740303F51053B3FBF2F371
:1019F4009BB20020E1E7FFF785F86268530803EB28
:101A04004003B3FBF2F39BB20020D6E762685308AD
:101A140003F58033B3FBF2F39BB20020CDE7012042
:101A24000023CAE7FFF77CF9636800EB5300B0FBBF
:101A3400F3F0236880B2D8600020C5E7FFF786F989
:101A4400636800EB5300B0FBF3F0236880B2D86006
:101A54000020B9E761684A0802F5F40202F59052E1
:101A6400B2FBF1F292B2DA600020ADE7FFF74AF878
:101A7400636800EB5300B0FBF3F0236880B2D860D6
:101A84000020A1E761684A0802F50042B2FBF1F2C6
:101A940092B2DA60002097E7012095E7F369FFEF3F
:101AA400003801400044004000480040004C004021
:101AB40000500040436A13F0010F06D002685368D7
:101AC40023F40033816A0B435360436A13F0020F1B
:101AD40006D00268536823F48033C16A0B43536011
:101AE400436A13F0040F06D00268536823F480237A
:101AF400016B0B435360436A13F0080F06D002686E
:101B0400536823F40043416B0B435360436A13F05F
:101B1400100F06D00268936823F48053816B0B4343
:101B24009360436A13F0200F06D00268936823F48D
:101B34000053C16B0B439360436A13F0400F0AD008
:101B44000268536823F48013016C0B435360036CE5
:101B5400B3F5801F0BD0436A13F0800F06D00268E0
:101B6400536823F40023816C0B435360704702686D
:101B7400536823F4C003416C0B435360EBE72DE936
:101B8400F04105460F4616469846069C2B68DB69CD
:101B940037EA03030CBF01230023B3421DD1B4F180
:101BA400FF3FF3D02CB1FEF755FBA0EB0800A04299
:101BB400ECD92A68136823F4D07313602A689368F5
:101BC40023F001039360202385F8693085F86A3097
:101BD400002385F86830032000E00020BDE8F08190
:101BE4002DE9F04182B01E4690F86930DBB2202B1B
:101BF4004ED104460D46904600294ED0002A4ED0C0
:101C040090F86830012B4CD0012380F86830002311
:101C1400C366212380F86930FEF71CFB0746A4F84D
:101C24005080A4F8528003E023682A781A8501358D
:101C3400B4F852309BB2DBB1B4F85230013B9BB2E2
:101C4400A4F8523000963B46002280212046FFF73C
:101C540096FF40BBA368B3F5805FE5D12369002BF1
:101C6400E2D1226835F8023BC3F308031385DFE7AA
:101C740000963B46002240212046FFF780FF0346A2
:101C840098B9202284F86920002284F8682000E0B2
:101C94000223184602B0BDE8F0810123F9E70123CD
:101CA400F7E70223F5E70323F3E70323F1E72DE93D
:101CB400F04182B01E4690F86A30DBB2202B71D11D
:101CC40004460D469046002970D0002A70D090F842
:101CD4006830012B6ED0012380F868300023C3667E
:101CE400222380F86A30FEF7B5FA0746A4F8588034
:101CF400A4F85A80A368B3F5805F06D0A3B923691A
:101D040073B9FF23A4F85C3011E0236923B940F2CE
:101D1400FF13A4F85C300AE0FF23A4F85C3006E06B
:101D24007F23A4F85C3002E0B3F1805F02D0B4F802
:101D34005C8010E023691BB97F23A4F85C30F6E7CC
:101D44003F23A4F85C30F2E723689A8C5FFA88F3A7
:101D540013402B700135B4F85A309BB2DBB1B4F8A0
:101D64005A30013B9BB2A4F85A3000963B460022FD
:101D740020212046FFF703FFF0B9A368B3F5805F85
:101D8400E2D12369002BDFD123689B8C08EA03038B
:101D940025F8023BDFE7202384F86A30002084F82A
:101DA400680000E0022002B0BDE8F0810120FAE7FB
:101DB4000120F8E70220F6E70320F4E730B583B00A
:101DC40004460023C366FEF745FA054623681B68EC
:101DD40013F0080F0ED123681B6813F0040F17D1FA
:101DE400202384F8693084F86A30002084F868007D
:101DF40003B030BD6FF07E430093034600224FF4DE
:101E040000112046FFF7BBFE0028E4D00320EFE7D3
:101E14006FF07E4300932B4600224FF4800120464E
:101E2400FFF7ADFE0028DBD00320E1E778B310B55F
:101E3400044690F869300BB3242384F8693022688F
:101E4400136823F0010313602046FFF7E3FC012825
:101E540013D0636ABBB92268536823F49043536078
:101E64002268936823F02A0393602268136843F07E
:101E7400010313602046FFF7A1FF10BD80F868300E
:101E840000F0DAF9D8E72046FFF714FEE3E7012073
:101E940070470000014B00221A7070479000002028
:101EA40010B582B04FF0FF33012201A91248FFF7A9
:101EB400FEFE9DF804300A2B0ED010490A78501CFF
:101EC40008700F498B540D4B1B78632B02D90B4BB5
:101ED40000221A7002B010BD084C2078421CD2B205
:101EE400227007490B544FF6FF730348FFF778FE3F
:101EF40000232370E7E700BF940000209000002037
:101F04002C00002082B00A4B5A6942F400325A6114
:101F14005A6902F400320092009A5A6942F480220B
:101F24005A615B6903F480230193019B02B07047FB
:101F34000010024030B58FB000240A940B940C9426
:101F44000D940794089409940094019402940394C2
:101F5400049405940694154D4FF080432B606C60F7
:101F6400AC60EC602C61AC612846FFF721F94FF4BA
:101F740080530A930AA92846FFF784FA2846FFF7F4
:101F840030F90794099407A92846FFF713FC602346
:101F94000093019402940494082269462846FFF7AA
:101FA4006FFB284600F004F90FB030BD4401002057
:101FB40030B58FB000240A940B940C940D940794BC
:101FC400089409940094019402940394049405944D
:101FD4000694154D154B2B606C60AC60EC602C6165
:101FE400AC612846FFF7E4F84FF480530A930AA93A
:101FF4002846FFF747FA2846FFF7F3F807940994B1
:1020040007A92846FFF7D6FB6023009301940294A6
:102014000494224669462846FFF732FB284600F01E
:10202400C7F80FB030BD00BF040100200004004019
:1020340008B50948094B03604FF4E13343600023BA
:102044008360C36003610C2242618361C3610362E4
:102054004362FFF7EBFE08BD9400002000440040FB
:1020640030B5A7B0242200211DA800F0A7F9002450
:102074001794189419941A941B945822214601A871
:1020840000F09CF902251C9501231F931023209333
:1020940022954FF4004323934FF4E01324931CA898
:1020A400FEF720FA0F231793189519944FF48063C1
:1020B4001A931B94294617A8FEF75CFD044B019361
:1020C40004940F94109401A8FEF756FE27B030BD77
:1020D4000200300008B5FEF79FF8FFF7C1FFFFF7D5
:1020E40011FFFFF727FFFFF763FFFFF7A1FF0420AE
:1020F400FEF712F9002208214FF0FF30FEF7C2F874
:10210400FEF708FE084BA3FB00308009FEF7EEF84B
:102114004FF6FF730E2205490548FFF761FDFFF7EF
:10212400B9FEFFF7BDFEFCE7D34D62102024000882
:102134009400002082B00A4B9A6942F001029A612D
:102144009A6902F001020092009ADA6942F0805220
:10215400DA61DB6903F080530193019B02B070479D
:102164000010024082B00368B3F1804F04D00E4ADD
:1021740093420DD002B0704703F50433DA6942F09C
:102184000102DA61DB6903F001030093009BF1E7CC
:10219400064BDA6942F00202DA61DB6903F00203FA
:1021A4000193019BE6E700BF0004004000100240D9
:1021B40000B589B000230393049305930693079312
:1021C4000368B3F1804F05D0184A934219D009B07F
:1021D4005DF804FB03F504335A6942F480225A6122
:1021E4005B6903F480230193019B4FF480630393A1
:1021F400022304930123079303A90D48FEF79CF8D7
:10220400E5E70C4B5A6942F480225A615B6903F496
:1022140080230293029B10230393022304930793C6
:1022240003A90348FEF788F8D1E700BF0004004083
:10223400000400480010024000B589B00023039355
:1022440004930593069307930268144B9A4202D0B1
:1022540009B05DF804FB03F5E633DA6942F40032B1
:10226400DA61DA6902F400320192019A5A6942F49D
:1022740000325A615B6903F400330293029B0C231E
:10228400039302230493032306930723079303A9C9
:102294004FF09040FEF750F8DAE700BF00440040EA
:1022A4007047FEE7FEE7FEE7FEE7704770477047BA
:1022B40008B5FDF7C3FF08BD1549D1F8883043F4CC
:1022C4007003C1F88830134B1A6842F001021A6097
:1022D4005868114A02405A601A6822F0847222F443
:1022E40080321A601A6822F480221A605A6822F432
:1022F400FE025A60DA6A22F00F02DA62186B074AA9
:1023040002401A6300229A604FF000638B607047AA
:1023140000ED00E0001002400CC07FF8CCFC00FF90
:10232400DFF834D0002103E00C4B5B5843500431F8
:102334000B480C4B42189A42F6D30B4A02E0002396
:1023440042F8043B094B9A42F9D3FFF7B5FF00F07A
:1023540011F8FFF7BFFEFEE7000001203824000853
:10236400000000200C0000200C000020840100204C
:10237400FEE7000070B50D4E0D4CA41BA410002503
:10238400A54209D10B4E0C4C00F020F8A41BA4105C
:102394000025A54205D170BD56F825309847013572
:1023A400EEE756F8253098470135F2E73024000867
:1023B4003024000830240008342400080244034672
:1023C400934200D1704703F8011BF9E7F8B500BF49
:1023D400F8BC08BC9E467047F8B500BFF8BC08BC02
:0423E4009E4670475A
:1023E80002030405060708090A0B0C0D0E0F10104E
:1023F8000102030405060708090A0B0C0D0E0F104D
:10240800000000000000000001020304060708099C
:1024180000000000010203044661626C6162204111
:0824280055444F210A0D00008C
:04243000B9010008E6
:042434009501000806
:0C243800010000001000000000127A00FB
:0400000508002325A7
:00000001FF
