:020000040800F2
:10000000000001209D250008E1240008E3240008E9
:10001000E5240008E7240008E924000800000000A7
:10002000000000000000000000000000EB240008B9
:10003000ED24000800000000EF240008F12400086F
:10004000ED250008ED250008ED250008ED25000848
:10005000ED250008ED250008ED250008ED25000838
:10006000ED250008ED250008ED250008ED25000828
:10007000ED250008ED250008ED250008ED25000818
:10008000ED250008ED250008ED250008ED25000808
:10009000ED250008ED250008ED250008ED250008F8
:1000A000ED250008ED250008ED250008ED250008E8
:1000B000ED250008ED250008ED250008ED250008D8
:1000C000ED250008ED250008ED250008ED250008C8
:1000D000ED250008ED250008ED250008ED250008B8
:1000E000ED250008ED250008ED250008ED250008A8
:1000F000ED250008ED250008ED250008ED25000898
:10010000ED2500080000000000000000ED250008BB
:10011000ED250008ED250008ED250008ED25000877
:10012000ED250008ED250008ED250008ED25000867
:10013000ED250008ED25000800000000000000008B
:10014000ED250008ED250008ED2500080000000061
:10015000000000000000000000000000000000009F
:10016000ED250008ED250008ED250008ED25000827
:10017000ED250008ED250008ED250008ED25000817
:10018000ED250008ED25000800000000000000003B
:04019000ED25000851
:1001A00010B5054C237833B9044B13B10448AFF3B1
:1001B00000800123237010BDDC010020000000003E
:1001C000D42F000808B5034B1BB103490348AFF314
:1001D000008008BD00000000E0010020D42F0008CE
:1001E00010F8012B11F8013B012A28BF9A42F7D0E1
:1001F000D01A7047034613F8012B002AFBD1181AB6
:1002000001387047000000000000000000000000FE
:1002100001F0FF01102A2BDB10F0070F08D010F8B7
:10022000013B013A8B422DD010F0070F42B3F6D1BB
:10023000F0B441EA012141EA014122F007047FF0D4
:1002400000070023F0E80256083C85EA010586EA2B
:10025000010685FA47F5A3FA87F586FA47F6A5FA67
:1002600087F68EB9EED1F0BC01F0FF0102F0070273
:1002700032B110F8013B013A83EA010313B1F8D11E
:100280000020704701387047002D06BF35460338FF
:10029000073815F0010F07D1013015F4807F02BF38
:1002A000013015F4C03F0130F0BC0138704700BF89
:1002B00010B504460E4B18784FF47A73B3FBF0F385
:1002C0000C4A1068B0FBF3F000F080F868B90F2C0E
:1002D00001D901200AE0002221464FF0FF3000F052
:1002E00041F8034B5C60002000E0012010BD00BF1E
:1002F000000000200800002008B5074A136843F0FA
:1003000010031360032000F01BF80020FFF7D0FF5C
:1003100002F030F8002008BD00200240034A1168B6
:10032000034B1B780B441360704700BF080200208A
:1003300000000020014B1868704700BF0802002031
:10034000074AD36823F4E0631B041B0C000200F48B
:10035000E060184340F0BF6040F40030D060704768
:1003600000ED00E030B4174BDB68C3F30223C3F1A8
:100370000704042C28BF04241D1D062D18D9033B97
:100380004FF0FF3505FA04F421EA0401994005FA1B
:1003900003F322EA0303194300280BDB0901C9B266
:1003A00000F1604000F5614080F8001330BC7047F8
:1003B0000023E5E700F00F000901C9B2024B195410
:1003C000F4E700BF00ED00E014ED00E00138B0F10B
:1003D000807F0AD2064B5860064AF02182F823102B
:1003E0000020986007221A6070470120704700BF04
:1003F00010E000E000ED00E0042805D0054A136895
:1004000023F0040313607047024A136843F00403A7
:100410001360704710E000E0F0B482B0002336E0D3
:10042000062400E00024B4403C430235614E46F807
:100430002540614C2568D44304EA05064F6817F44B
:10044000803F01D042EA05065B4D2E606D6804EAEC
:1004500005064F6817F4003F01D042EA0506564DE5
:100460006E60AD6804EA05064F6817F4801F01D07E
:1004700042EA0506504DAE60ED682C404E6816F419
:10048000001F01D042EA05044B4AD46001330A68D8
:1004900032FA03F400F08B8001249C402240F5D016
:1004A0004D68022D01D0122D10D1DE08083650F80B
:1004B00026C003F00705AF000F25BD402CEA050C50
:1004C0000D69BD4045EA0C0540F8265006685F00FE
:1004D0000325BD40ED4305EA060C4E6806F0030611
:1004E000BE4046EA0C0606604E6806F1FF3CBCF1D1
:1004F000010F03D9112E01D0122E10D1866805EA02
:10050000060CCE68BE4046EA0C068660466826EABF
:1005100004044E68C6F300169E4026434660C46835
:1005200025408C68BC402C43C4604C6814F0805F4C
:10053000ACD0224CA56945F00105A561A46904F081
:1005400001040194019C9D08AE1C1A4C54F82670BD
:1005500003F00304A6000F24B44027EA0407B0F117
:10056000904F3FF45FAF164CA04216D004F5806464
:10057000A04214D004F58064A04212D004F5806437
:10058000A04210D004F58064A0420ED004F580642F
:10059000A0423FF445AF072445E7012443E7022486
:1005A00041E703243FE704243DE705243BE702B08D
:1005B000F0BC704700000140000401400010024000
:1005C00000040048002800F0F98270B582B00446AB
:1005D000036813F0010F3DD0B44B5B6803F00C03CC
:1005E000042B20D0B14B5B6803F00C03082B13D015
:1005F0006368B3F5803F6AD0002B40F08D8003F133
:10060000804303F504331A6822F480321A601A68B2
:1006100022F480221A605FE0A44B5B6803F4C033CD
:10062000B3F5803FE4D14FF4003393FAA3F39F4B2B
:1006300019684FF4003393FAA3F3B3FA83F303F08A
:100640001F03012202FA03F30B4203D06368002B5D
:1006500000F0BC82236813F0020F00F0C180934BBE
:100660005B6813F00C0F00F09780904B5B6803F011
:100670000C03082B00F08880E368002B00F0EE806C
:10068000012292FAA2F3B3FA83F303F1845303F540
:1006900084139B001A60FFF74DFE0546022393FA70
:1006A000A3F3824B1968022393FAA3F3B3FA83F3FB
:1006B00003F01F03012202FA03F30B4240F0BF8054
:1006C000FFF738FE401B0228E8D9032085E2774A6D
:1006D000136843F4803313606368002B36D0FFF750
:1006E00029FE05464FF4003393FAA3F36F4B1968C4
:1006F0004FF4003393FAA3F3B3FA83F303F01F0329
:10070000012202FA03F30B42A4D1FFF713FE401BB0
:100710006428E7D9032060E2B3F5A02F09D0634B2A
:100720001A6822F480321A601A6822F480221A6051
:10073000D2E703F18043A3F53C331A6842F48022E8
:100740001A601A6842F480321A60C5E7FFF7F2FDBA
:1007500005464FF4003393FAA3F3544B19684FF452
:10076000003393FAA3F3B3FA83F303F01F030122D8
:1007700002FA03F30B423FF46DAFFFF7DBFD401BC2
:100780006428E6D9032028E2484B5B6803F4C033B1
:10079000B3F5004F7FF470AF022393FAA3F3434BFA
:1007A0001968022393FAA3F3B3FA83F303F01F0348
:1007B000012202FA03F30B4204D0E368934201D012
:1007C00001200AE23948036823F0F8032169F8227E
:1007D00092FAA2F2B2FA82F201FA02F21343036031
:1007E000236813F0080F00F08D806369002B61D03F
:1007F000012191FAA1F2B2FA82F22D4B13449B002F
:100800001960FFF797FD0546022393FAA3F293FAC6
:10081000A3F293FAA3F2254A516A93FAA3F3B3FA27
:1008200083F303F01F03012202FA03F30B4269D1A1
:10083000FFF780FD401B0228E6D90320CDE11B48CD
:10084000036823F0F8032169F82292FAA2F2B2FABF
:1008500082F201FA02F213430360C1E7012393FA23
:10086000A3F3B3FA83F303F1845303F584139B00DA
:1008700000221A60FFF75EFD0546022393FAA3F3F8
:100880000A4B1968022393FAA3F3B3FA83F303F034
:100890001F03012202FA03F30B42A1D0FFF74AFD26
:1008A000401B0228E9D9032097E100BF0010024055
:1008B00020819010012292FAA2F2B2FA82F2C04B89
:1008C00013449B0000221A60FFF734FD0546022303
:1008D00093FAA3F293FAA3F293FAA3F2B94A516AF4
:1008E00093FAA3F3B3FA83F303F01F03012202FA8E
:1008F00003F30B4206D0FFF71DFD401B0228E6D98B
:1009000003206AE1236813F0040F00F0B380AD4BBD
:10091000DB6913F0805F20D1AA4BDA6942F0805284
:10092000DA61DB6903F080530193019B0125A64B3B
:100930001B6813F4807F12D0A368012B23D073BBF4
:1009400003F1804303F504331A6A22F001021A62AC
:100950001A6A22F004021A621AE00025E7E79A4AAE
:10096000136843F480731360FFF7E4FC0646964B6C
:100970001B6813F4807FDFD1FFF7DCFC801B642849
:10098000F5D9032029E18F4A136A43F0010313626A
:10099000A368002B41D0FFF7CDFC06462BE0052BCA
:1009A00009D0884B1A6A22F001021A621A6A22F0F0
:1009B00004021A62ECE7834B1A6A42F004021A62DC
:1009C0001A6A42F001021A62E2E77E4B196A0223B8
:1009D00093FAA3F3B3FA83F303F01F03012202FA9D
:1009E00003F3194245D1FFF7A5FC801B41F2883380
:1009F000984200F2ED80022393FAA3F293FAA3F354
:100A0000B3FA83F35B0943F00203022BDDD0022328
:100A100093FAA3F36B4B596AD9E7FFF78BFC0646B1
:100A200015E0684B196A022393FAA3F3B3FA83F330
:100A300003F01F03012202FA03F3194219D0FFF752
:100A400079FC801B41F28833984200F2C380022374
:100A500093FAA3F293FAA3F3B3FA83F35B0943F097
:100A60000203022BDDD0022393FAA3F3554B596AFC
:100A7000D9E7B5BBA369002B00F0AE80514A52689C
:100A800002F00C02082A00F0AA80022B2FD04FF0AF
:100A9000807393FAA3F3B3FA83F303F1845303F55A
:100AA00084139B0000221A60FFF744FC04464FF0B9
:100AB000007393FAA3F3434B19684FF0007393FA52
:100AC000A3F3B3FA83F303F01F03012202FA03F343
:100AD000194271D0FFF72EFC001B0228E7D9032032
:100AE0007BE0384AD36923F08053D361C2E74FF0EB
:100AF000807393FAA3F3B3FA83F303F1845303F5FA
:100B000084139B0000221A60FFF714FC05464FF087
:100B1000007393FAA3F32B4B19684FF0007393FA09
:100B2000A3F3B3FA83F303F01F03012202FA03F3E2
:100B3000194206D0FFF7FEFB401B0228E7D903202D
:100B40004BE0204AD36A23F00F03616A0B43D36260
:100B5000536823F47613216AE06901430B43536021
:100B60004FF0807393FAA3F3B3FA83F303F1845342
:100B700003F584139B0001221A60FFF7DBFB044698
:100B80004FF0007393FAA3F30E4B19684FF0007304
:100B900093FAA3F3B3FA83F303F01F03012202FADB
:100BA00003F3194206D1FFF7C5FB001B0228E7D962
:100BB000032012E0002010E000200EE0012070472A
:100BC000208190100010024000700040012004E0DD
:100BD000032002E0032000E0002002B070BD0120ED
:100BE000FBE700BF10B4184B5C6804F00C03082B43
:100BF00028D104F470124FF4701393FAA3F3B3FAEC
:100C000083F322FA03F31149C85C0F4BDB6A03F04C
:100C10000F030F2292FAA2F2B2FA82F2D3400B44EF
:100C20001A7C14F4803F07D1094BB3FBF2F300FBAD
:100C300003F05DF8044B7047054BB3FBF2F300FB88
:100C400003F0F6E70248F4E700100240EC2F00083A
:100C500000127A00002800F0C08070B50446614B95
:100C60001B6803F007038B420CD25E4A136823F023
:100C700007030B431360136803F007038B4201D093
:100C8000012070BD236813F0020F06D0564A536846
:100C900023F0F003A068034353600D46236813F06C
:100CA000010F5AD06368012B2DD0022B40D00222B5
:100CB00092FAA2F24C4A1068022292FAA2F2B2FA16
:100CC00082F202F01F02012101FA02F2104200F04A
:100CD000868045494A6822F0030213434B60FFF7C0
:100CE00029FB0646404B5B6803F00C036268B3EBDC
:100CF000820F32D0FFF71EFB801B41F288339842EF
:100D0000F0D90320BDE74FF4003292FAA2F2364A3E
:100D100010684FF4003292FAA2F2B2FA82F202F0B4
:100D20001F02012101FA02F20242D2D10120A8E7FA
:100D30004FF0007292FAA2F22B4A10684FF0007244
:100D400092FAA2F2B2FA82F202F01F02012101FA33
:100D500002F21042BDD1012093E7224B1B6803F041
:100D60000703AB420CD91F4A136823F007032B4338
:100D70001360136803F00703AB4201D0012080E742
:100D8000236813F0040F06D0174A536823F4E06376
:100D9000E1680B435360236813F0080F07D0124A31
:100DA000536823F46053216943EAC1035360FFF79A
:100DB00019FF0D4B5B6803F0F003F02292FAA2F2E8
:100DC000B2FA82F2D340094AD35CD840084B18608B
:100DD0000020FFF76DFA002053E701207047012043
:100DE0004FE700BF00200240001002400C30000816
:100DF00008000020014B1868704700BF0800002061
:100E000008B5FFF7F7FF074B5B6803F4E0634FF4A7
:100E1000E06292FAA2F2B2FA82F2D340024AD35CC2
:100E2000D84008BD001002401C30000808B5FFF78C
:100E3000E1FF074B5B6803F460534FF4605292FA92
:100E4000A2F2B2FA82F2D340024AD35CD84008BD83
:100E5000001002401C300008F0B583B0044603685F
:100E600013F4803F48D0A14BDB6913F0805F40F062
:100E700022819E4BDA6942F08052DA61DB6903F02D
:100E800080530193019B0125994B1B6813F4807FCC
:100E900000F01381954B1B6A13F4407322D06268F3
:100EA00002F440729A421DD09048016A21F44076C3
:100EB0004FF4803393FAA3F2B2FA82F28D4F3A44A0
:100EC00092004FF0010CC2F800C093FAA3F3B3FAFA
:100ED00083F33B449B0000221A60066211F0010F6D
:100EE00040F00081814A136A23F4407361680B4328
:100EF0001362002D40F02881236813F0010F06D003
:100F00007A4A136B23F00303A1680B43136323682E
:100F100013F0020F06D0754A136B23F44033E168D7
:100F20000B431363236813F0040F06D06F4A136B4F
:100F300023F4402321690B431363236813F0200F2C
:100F400006D06A4A136B23F01003E1690B43136365
:100F5000236813F4003F06D0644A536823F48003E7
:100F6000616D0B435360236813F0400F06D05F4A56
:100F7000136B23F02003216A0B431363236813F4DC
:100F8000802F06D0594A136B23F04003616A0B434C
:100F90001363236813F0080F06D0544A136B23F42D
:100FA000401361690B431363236813F0100F06D0DD
:100FB0004E4A136B23F44003A1690B431363236868
:100FC00013F4007F06D0494A536823F40003216BD1
:100FD0000B435360236813F0800F06D0434AD36A53
:100FE00023F4F873A16A0B43D362236813F4807F60
:100FF00006D03E4AD36A23F47853E16A0B43D362A6
:10100000236813F4805F06D0384A136B23F480738F
:10101000616B0B431363236813F4005F06D0334AFC
:10102000136B23F40073216C0B431363236813F4D5
:10103000801F06D02D4A136B23F08073A16B0B43E6
:101040001363236813F4001F06D0284A136B23F0A0
:101050000073E16B0B431363236813F4800F06D016
:10106000224A136B23F48063616C0B431363236880
:1010700013F4000F06D01D4A136B23F40063A16C18
:101080000B431363236813F0807F06D0174A136B5A
:1010900023F40053E16C0B431363236813F0007FC8
:1010A00059D0124A136B23F40043216D0B43136391
:1010B000002003B0F0BD0025E6E60D4A136843F4B6
:1010C00080731360FFF736F90646094B1B6813F46B
:1010D000807F7FF4DFAEFFF72DF9801B6428F4D901
:1010E0000320E6E7FFF726F906461BE00010024062
:1010F0000070004000819010184B196A022393FA87
:10110000A3F3B3FA83F303F01F03012202FA03F3FC
:101110000B427FF4E7AEFFF70DF9801B41F28833F5
:10112000984216D8022393FAA3F293FAA3F3B3FAE0
:1011300083F35B0943F00203022BDDD0022393FA11
:10114000A3F3064B596AD9E7D36923F08053D361DF
:10115000D2E60320ADE70020ABE700BF001002405D
:1011600010B4036A046A24F001040462846924F060
:10117000F00444EA021223F00A030B438261036283
:101180005DF8044B704710B4036A23F01003036248
:101190008469036A24F4704444EA023223F0A00311
:1011A00043EA0113826103625DF8044B7047836870
:1011B00023F0700341F007011943816070477047C5
:1011C0000368324A904212D0B0F1804F0FD0A2F59E
:1011D000943290420BD002F58062904207D002F523
:1011E0009632904203D002F5E052904203D123F0B0
:1011F00070034A681343254A90421ED0B0F1804FD5
:101200001BD0A2F59432904217D002F58062904232
:1012100013D002F5963290420FD002F54062904210
:101220000BD002F58062904207D002F580629042B6
:1012300003D002F50062904203D123F44073CA68E0
:10124000134323F080034A69134303608B68C3622E
:101250000B6883620D4B984213D003F500639842EC
:101260000FD003F5406398420BD003F5806398429A
:1012700007D003F58063984203D003F500639842DA
:1012800001D10B690363012343617047002C0140C6
:10129000A8B110B5044690F83D305BB1022384F844
:1012A0003D30211D2068FFF78BFF012384F83D307E
:1012B000002010BD80F83C3001F074F8EEE701200A
:1012C0007047A8B110B5044690F83D305BB10223D9
:1012D00084F83D30211D2068FFF772FF012384F858
:1012E0003D30002010BD80F83C30FFF768FFEEE78E
:1012F0000120704730B4036A23F001030362036ADC
:101300004468826922F4803222F073020D682A4315
:1013100023F002038D682B43204DA84213D005F51E
:101320000065A8420FD005F54065A8420BD005F531
:101330008065A84207D005F58065A84203D005F571
:101340000065A84205D123F00803CD682B4323F0A4
:101350000403124DA84213D005F50065A8420FD032
:1013600005F54065A8420BD005F58065A84207D079
:1013700005F58065A84203D005F50065A84205D1B2
:1013800024F440754C692C438D692C434460826180
:101390004A684263036230BC704700BF002C0140C2
:1013A00030B4036A23F010030362036A446882695D
:1013B00022F0807222F4E6420D6842EA052223F010
:1013C00020038D6843EA05131B4DA84207D005F59D
:1013D0000065A84203D005F5E055A84206D123F0E8
:1013E0008003CD6843EA051323F04003124DA84261
:1013F00013D005F50065A8420FD005F54065A84259
:101400000BD005F58065A84207D005F58065A84298
:1014100003D005F50065A84207D124F440644D6966
:1014200044EA85048D6944EA8504446082614A681F
:101430008263036230BC7047002C014030B4036A01
:1014400023F480730362036A4468C26922F4803221
:1014500022F073020D682A4323F400738D6843EA77
:1014600005231C4DA84207D005F50065A84203D00E
:1014700005F5E055A84206D123F40063CD6843EAA0
:10148000052323F48063134DA84213D005F50065AE
:10149000A8420FD005F54065A8420BD005F5806540
:1014A000A84207D005F58065A84203D005F5006580
:1014B000A84207D124F440544D6944EA05148D69CB
:1014C00044EA05144460C2614A68C263036230BCE6
:1014D000704700BF002C014030B4036A23F48053EE
:1014E0000362036A4468C26922F0807222F4E64211
:1014F0000D6842EA052223F400538D6843EA053360
:10150000114DA84213D005F50065A8420FD005F58E
:101510004065A8420BD005F58065A84207D005F5C7
:101520008065A84203D005F50065A84204D124F4E3
:1015300080444D6944EA85144460C2614A6802648B
:10154000036230BC704700BF002C014010B48468B7
:1015500024F47F4442EA03230B43234383605DF872
:10156000044B704790F83C30012B00F0828010B59E
:101570000446012380F83C30022380F83D300268A5
:1015800090683D4B034093600B68402B5DD010D9B1
:10159000702B40D01FD8502B4DD0602B34D1CA684F
:1015A00049682068FFF7EFFD60212068FFF7FFFD25
:1015B0002AE0102B53D008D9202B55D0302B23D123
:1015C00030212068FFF7F3FD1EE0EBB90021206811
:1015D000FFF7EDFD18E0B3F5805F0ED0B3F5005FC7
:1015E00012D1CB684A6889682068FFF7AFFF22688C
:1015F000936843F48043936006E02268936823F481
:10160000803323F007039360012384F83D300020EA
:1016100084F83C0010BDCB684A6889682068FFF7F1
:1016200095FF2268936823F4803323F0770343F017
:1016300077039360E8E7CA6849682068FFF790FD80
:1016400050212068FFF7B3FDDEE7CA6849682068CB
:10165000FFF786FD40212068FFF7A9FDD4E71021A0
:101660002068FFF7A4FDCFE720212068FFF79FFD4A
:10167000CAE70220704700BF8800FEFF30B4036A4B
:1016800023F480330362036A4468426D22F480329B
:1016900022F070020D682A4323F400338D6843EA78
:1016A0000543114DA84213D005F50065A8420FD09F
:1016B00005F54065A8420BD005F58065A84207D026
:1016C00005F58065A84203D005F50065A84204D160
:1016D00024F480344D6944EA0524446042654A6834
:1016E0008265036230BC7047002C014030B4036A4D
:1016F00023F480130362036A4468426D22F080720F
:1017000022F4E0420D6842EA052223F400138D68BA
:1017100043EA0553114DA84213D005F50065A842D0
:101720000FD005F54065A8420BD005F58065A842AD
:1017300007D005F58065A84203D005F50065A842ED
:1017400004D124F480244D6944EA85244460426530
:101750004A68C265036230BC704700BF002C01407C
:1017600038B590F83C30012B00F092800D460446CD
:10177000012380F83C30022380F83D30142A1ED823
:10178000DFE802F00B1D1D1D241D1D1D381D1D1D34
:101790004B1D1D1D5F1D1D1D72000068FFF7AAFD7A
:1017A0002268936943F0080393612268936923F0E8
:1017B000040393612268936929690B4393610123B0
:1017C00084F83D30002084F83C0038BD0068FFF705
:1017D000E7FD2268936943F400639361226893698B
:1017E00023F48063936122689369296943EA0123A2
:1017F0009361E4E70068FFF721FE2268D36943F0B4
:101800000803D3612268D36923F00403D3612268FB
:10181000D36929690B43D361D1E70068FFF75CFE08
:101820002268D36943F40063D3612268D36923F447
:101830008063D3612268D369296943EA0123D361B4
:10184000BDE70068FFF71AFF2268536D43F00803F5
:1018500053652268536D23F0040353652268536D6A
:1018600029690B435365AAE70068FFF73FFF226829
:10187000536D43F4006353652268536D23F4806312
:1018800053652268536D296943EA0123536596E73E
:1018900002209AE790F83C30012B26D030B4012387
:1018A00080F83C30026853689568114CA24207D01A
:1018B00004F50064A24203D004F5E054A24203D12F
:1018C00023F470034C68234323F070030C68234314
:1018D00025F08004896821435360036899600023E0
:1018E00080F83C30184630BC70470220704700BF7B
:1018F000002C014010B50446836802691343426915
:101900001343C2691343016808689C4A02401343A9
:101910000B602268536823F44053E1680B43536023
:10192000A369226A1A4321688B6823F43063134346
:101930008B602368924A93421FD0924A93422FD0E1
:10194000914A934246D0914A93425DD0904A934245
:1019500074D01022E169B1F5004F00F08B80082AA5
:1019600000F20A81DFE812F0CE00DA00E60008019A
:10197000F200080108010801FE0002F55842126B4E
:1019800002F00302032A09D8DFE802F0020406721B
:101990000122DFE70422DDE70822DBE71022D9E796
:1019A00002F5E632126B02F44032B2F5803F0BD002
:1019B00007D9B2F5003F09D0B2F5403F08D1022265
:1019C000C8E72AB90022C5E70422C3E70822C1E715
:1019D0001022BFE702F5E432126B02F44022B2F5A6
:1019E000802F0BD007D9B2F5002F09D0B2F5402FC8
:1019F00008D10222AEE72AB90022ABE70422A9E708
:101A00000822A7E71022A5E702F5E232126B02F4E2
:101A10004012B2F5801F0BD007D9B2F5001F09D0D4
:101A2000B2F5401F08D1022294E72AB9002291E7BB
:101A300004228FE708228DE710228BE702F5E032BF
:101A4000126B02F44002B2F5800F0BD007D9B2F549
:101A5000000F09D0B2F5400F08D102227AE72AB967
:101A6000002277E7042275E7082273E7102271E766
:101A700002226FE7082A42D8DFE802F00517224168
:101A80002D4141413800FFF7BBF96268530803EB71
:101A90004003B3FBF2F39BB2002023F00F02C3F329
:101AA000420313432268D36010BDFFF7BFF9626899
:101AB000530803EB4003B3FBF2F39BB20020ECE7C7
:101AC0006268530803F5740303F51053B3FBF2F394
:101AD0009BB20020E1E7FFF785F86268530803EB4B
:101AE0004003B3FBF2F39BB20020D6E762685308D1
:101AF00003F58033B3FBF2F39BB20020CDE7012066
:101B00000023CAE7FFF77CF9636800EB5300B0FBE2
:101B1000F3F0236880B2D8600020C5E7FFF786F9AC
:101B2000636800EB5300B0FBF3F0236880B2D86029
:101B30000020B9E761684A0802F5F40202F5905204
:101B4000B2FBF1F292B2DA600020ADE7FFF74AF89B
:101B5000636800EB5300B0FBF3F0236880B2D860F9
:101B60000020A1E761684A0802F50042B2FBF1F2E9
:101B700092B2DA60002097E7012095E7F369FFEF62
:101B8000003801400044004000480040004C004044
:101B900000500040436A13F0010F06D002685368FA
:101BA00023F40033816A0B435360436A13F0020F3E
:101BB00006D00268536823F48033C16A0B43536034
:101BC000436A13F0040F06D00268536823F480239D
:101BD000016B0B435360436A13F0080F06D0026891
:101BE000536823F40043416B0B435360436A13F083
:101BF000100F06D00268936823F48053816B0B4367
:101C00009360436A13F0200F06D00268936823F4B0
:101C10000053C16B0B439360436A13F0400F0AD02B
:101C20000268536823F48013016C0B435360036C08
:101C3000B3F5801F0BD0436A13F0800F06D0026803
:101C4000536823F40023816C0B4353607047026890
:101C5000536823F4C003416C0B435360EBE72DE959
:101C6000F04105460F4616469846069C2B68DB69F0
:101C700037EA03030CBF01230023B3421DD1B4F1A3
:101C8000FF3FF3D02CB1FEF755FBA0EB0800A042BC
:101C9000ECD92A68136823F4D07313602A68936818
:101CA00023F001039360202385F8693085F86A30BA
:101CB000002385F86830032000E00020BDE8F081B3
:101CC0002DE9F04182B01E4690F86930DBB2202B3E
:101CD0004ED104460D46904600294ED0002A4ED0E3
:101CE00090F86830012B4CD0012380F86830002335
:101CF000C366212380F86930FEF71CFB0746A4F871
:101D00005080A4F8528003E023682A781A850135B0
:101D1000B4F852309BB2DBB1B4F85230013B9BB205
:101D2000A4F8523000963B46002280212046FFF75F
:101D300096FF40BBA368B3F5805FE5D12369002B14
:101D4000E2D1226835F8023BC3F308031385DFE7CD
:101D500000963B46002240212046FFF780FF0346C5
:101D600098B9202284F86920002284F8682000E0D5
:101D70000223184602B0BDE8F0810123F9E70123F0
:101D8000F7E70223F5E70323F3E70323F1E72DE960
:101D9000F04182B01E4690F86A30DBB2202B71D140
:101DA00004460D469046002970D0002A70D090F865
:101DB0006830012B6ED0012380F868300023C366A1
:101DC000222380F86A30FEF7B5FA0746A4F8588057
:101DD000A4F85A80A368B3F5805F06D0A3B923693D
:101DE00073B9FF23A4F85C3011E0236923B940F2F2
:101DF000FF13A4F85C300AE0FF23A4F85C3006E08F
:101E00007F23A4F85C3002E0B3F1805F02D0B4F825
:101E10005C8010E023691BB97F23A4F85C30F6E7EF
:101E20003F23A4F85C30F2E723689A8C5FFA88F3CA
:101E300013402B700135B4F85A309BB2DBB1B4F8C3
:101E40005A30013B9BB2A4F85A3000963B46002220
:101E500020212046FFF703FFF0B9A368B3F5805FA8
:101E6000E2D12369002BDFD123689B8C08EA0303AE
:101E700025F8023BDFE7202384F86A30002084F84D
:101E8000680000E0022002B0BDE8F0810120FAE71E
:101E90000120F8E70220F6E70320F4E730B583B02D
:101EA00004460023C366FEF745FA054623681B680F
:101EB00013F0080F0ED123681B6813F0040F17D11D
:101EC000202384F8693084F86A30002084F86800A0
:101ED00003B030BD6FF07E430093034600224FF401
:101EE00000112046FFF7BBFE0028E4D00320EFE7F7
:101EF0006FF07E4300932B4600224FF48001204672
:101F0000FFF7ADFE0028DBD00320E1E778B310B582
:101F1000044690F869300BB3242384F869302268B2
:101F2000136823F0010313602046FFF7E3FC012848
:101F300013D0636ABBB92268536823F4904353609B
:101F40002268936823F02A0393602268136843F0A1
:101F5000010313602046FFF7A1FF10BD80F8683031
:101F600000F08AFAD8E72046FFF714FEE3E70120E5
:101F700070470000014B00221A7070477002002069
:101F8000F0B59DF814C0416000270770012480F867
:101F90002C40BE463E463D4625E00DB19C4220D039
:101FA0000DB1944210D0EDB994421BD00137BFB2AD
:101FB0001FFA8CF5BD420CD37D1E00EB85056960D0
:101FC0009C4218D001250DE000240C708E46354649
:101FD00008E08EF80020002380F82C3080F800C044
:101FE0000DE02E4601310C7844B1002ED5D09C4234
:101FF000F8D10026F6E701263546F3E70770F0BD75
:1020000070B5A8B00A250095222320222E491CA8CD
:10201000FFF7B6FF9DF870202C4903A800F01EFBC7
:1020200003A8FEF7E7F82A4C4FF6FF7382B203A924
:102030002046FFF745FE1D9E3046FEF7DBF84FF6C3
:10204000FF7382B231462046FFF73AFEADF80C50DE
:1020500003A8FEF7CFF84FF6FF7382B203A920461C
:10206000FFF72EFE1E9E3046FEF7C4F84FF6FF73B4
:1020700082B231462046FFF723FEADF80C5003A88C
:10208000FEF7B8F84FF6FF7382B203A92046FFF7B8
:1020900017FE10491D98FEF7A3F808B128B070BDCF
:1020A0001E9800F0A4FA02460B4903A800F0D6FAE5
:1020B00003A8FEF79FF84FF6FF7382B203A92046EC
:1020C000FFF7FEFDEAE700BF0C0200202430000805
:1020D00074020020343000083C30000810B582B093
:1020E0004FF0FF33012201A91348FFF750FE9DF87E
:1020F00004300A2B0ED011490A78501C0870104980
:102100008B540E4B1B78632B02D90C4B00221A7098
:1021100002B010BD094C2078421CD2B2227008498E
:102120000B544FF6FF730448FFF7CAFDFFF768FF33
:1021300000232370E5E700BF740200207002002036
:102140000C02002082B00A4B5A6942F400325A61F4
:102150005A6902F400320092009A5A6942F48022CD
:102160005A615B6903F480230193019B02B07047BD
:102170000010024030B58FB000240A940B940C94E8
:102180000D94079408940994009401940294039484
:10219000049405940694154D4FF080432B606C60B9
:1021A000AC60EC602C61AC612846FFF771F84FF42D
:1021B00080530A930AA92846FFF7D4F92846FFF767
:1021C00080F80794099407A92846FFF763FB60236A
:1021D0000093019402940494082269462846FFF76C
:1021E000BFFA284600F004F90FB030BD24030020E8
:1021F00030B58FB000240A940B940C940D9407947E
:10220000089409940094019402940394049405940E
:102210000694154D154B2B606C60AC60EC602C6126
:10222000AC612846FFF734F84FF480530A930AA9AB
:102230002846FFF797F92846FFF743F807940994D3
:1022400007A92846FFF726FB602300930194029418
:102250000494224669462846FFF782FA284600F091
:10226000C7F80FB030BD00BFE402002000040040FA
:1022700008B50948094B03604FF4E133436000237C
:102280008360C36003610C2242618361C3610362A6
:102290004362FFF73BFE08BD74020020004400408B
:1022A00030B5A7B0242200211DA800F0CFF90024EA
:1022B0001794189419941A941B945822214601A833
:1022C00000F0C4F902251C9501231F9310232093CD
:1022D00022954FF4004323934FF4E01324931CA85A
:1022E000FEF770F90F231793189519944FF4806334
:1022F0001A931B94294617A8FEF7ACFC044B0193D4
:1023000004940F94109401A8FEF7A6FD27B030BDE9
:102310000200300008B5FDF7EFFFFFF7C1FFFFF740
:1023200011FFFFF727FFFFF763FFFFF7A1FF04206F
:10233000FEF762F8002208214FF0FF30FEF712F896
:10234000FEF758FD084BA3FB00308009FEF73EF86E
:102350004FF6FF730E2205490548FFF7B1FCFFF762
:1023600009FEFFF7BBFEFCE7D34D621048300008C2
:102370007402002082B00A4B9A6942F001029A610D
:102380009A6902F001020092009ADA6942F08052E2
:10239000DA61DB6903F080530193019B02B070475F
:1023A0000010024082B00368B3F1804F04D00E4A9F
:1023B00093420DD002B0704703F50433DA6942F05E
:1023C0000102DA61DB6903F001030093009BF1E78E
:1023D000064BDA6942F00202DA61DB6903F00203BC
:1023E0000193019BE6E700BF00040040001002409B
:1023F00000B589B0002303930493059306930793D4
:102400000368B3F1804F05D0184A934219D009B040
:102410005DF804FB03F504335A6942F480225A61E3
:102420005B6903F480230193019B4FF48063039362
:10243000022304930123079303A90D48FDF7ECFF42
:10244000E5E70C4B5A6942F480225A615B6903F458
:1024500080230293029B1023039302230493079388
:1024600003A90348FDF7D8FFD1E700BF00040040EF
:10247000000400480010024000B589B00023039317
:1024800004930593069307930268144B9A4202D073
:1024900009B05DF804FB03F5E633DA6942F4003273
:1024A000DA61DA6902F400320192019A5A6942F45F
:1024B00000325A615B6903F400330293029B0C23E0
:1024C000039302230493032306930723079303A98B
:1024D0004FF09040FDF7A0FFDAE700BF0044004056
:1024E0007047FEE7FEE7FEE7FEE77047704770477C
:1024F00008B5FDF713FF08BD08B503460B4A12687F
:1025000042B10A4A106803446A46934206D8074A11
:10251000136008BD054A06491160F2E700F06CF847
:102520000C2303604FF0FF30F3E700BFF8010020F9
:10253000680300201549D1F8883043F47003C1F8CE
:102540008830134B1A6842F001021A605868114A29
:1025500002405A601A6822F0847222F480321A60B3
:102560001A6822F480221A605A6822F4FE025A6025
:10257000DA6A22F00F02DA62186B074A02401A6325
:1025800000229A604FF000638B60704700ED00E01E
:10259000001002400CC07FF8CCFC00FFDFF834D004
:1025A000002103E00C4B5B58435004310B480C4BAB
:1025B00042189A42F6D30B4A02E0002342F8043B49
:1025C000094B9A42F9D3FFF7B5FF00F01BF8FFF76C
:1025D000A1FEFEE700000120A0310008000000205D
:1025E000DC010020DC01002068030020FEE70A2255
:1025F000002100F0CFB80000014B1868704700BF01
:102600000C00002070B50D4E0D4CA41BA41000252D
:10261000A54209D10B4E0C4C00F0DCFCA41BA4100D
:102620000025A54205D170BD56F8253098470135E3
:10263000EEE756F8253098470135F2E79831000863
:1026400098310008983100089C3100080244034684
:10265000934200D1704703F8011BF9E70EB400B5AF
:102660009CB01DAB029006906FF0004109480791A5
:102670000491094953F8042B05910068019302A9BC
:1026800000F00EF9029B00221A701CB05DF804EBFA
:1026900003B070470C0000200802FFFF2DE9F0474F
:1026A0008046894692461E460F463D46089815F8D4
:1026B000014B00F085F82044437813F0080332D131
:1026C0002D2C32D17C78BD1C0122002E5DD0102E25
:1026D00009D1302C07D12B7803F0DF03582B4FD1D1
:1026E0006C7810260235002A14BF4FF000416FF0BD
:1026F00000410027B1FBF6FC384606FB1C1EA4F186
:102700003003092B17D81C46A64223DD7B1C07D0BB
:1027100084451CD301D1A64519DB00FB06400127E7
:1027200015F8014BEBE72F46BFE72B2C04BFBD1C70
:102730007C781A46C9E7A4F14103192B01D8373C2C
:10274000E2E7A4F16103192B04D8573CDCE74FF012
:10275000FF37E5E77B1C08D12223C8F80030084684
:10276000BAF1000F07D1BDE8F08702B14042BAF1DB
:10277000000FF8D00FB105F1FF39CAF80090F2E769
:102780003024002EAFD10826ADE7302CA3D00A2686
:10279000A9E70000084B37B51C68084D236A002BD9
:1027A00008BF2B46009313460A4601462046FFF712
:1027B00075FF03B030BD00BF0C000020700000208A
:1027C000D0F8EC00704782B001B901A942B14BB119
:1027D00013780B601278101C18BF012002B07047EC
:1027E0001046FBE76FF00100F8E72DE9F0478E682F
:1027F0009E4282460C469046994637D88A8912F402
:10280000906F31D0256809696F1A6569022305EB5D
:10281000450595FBF3F509F101033B449D4238BFA3
:102820001D46530530D5294600F03AFB064650B9FF
:102830000C23CAF80030A38943F04003A3814FF072
:10284000FF30BDE8F0873A46216900F0B6FAA38967
:1028500023F4906343F08003A381266165613E44C5
:10286000ED1B2660A5604E464E4500D94E463246C9
:102870004146206800F0ACFAA3689B1BA360236864
:102880001E4426600020DCE72A4600F063FB064673
:102890000028E2D12169504600F0B4FAC8E70000F0
:1028A0002DE9F04F1D468B891F069DB080460C46D2
:1028B00016460FD50B696BB9402100F0F1FA206084
:1028C000206128B90C23C8F800304FF0FF30C8E071
:1028D000402363610023099320238DF8293030239E
:1028E0008DF82A3003954FF0010B37463D4615F819
:1028F000013B0BB1252B3ED1B7EB060A0BD053465B
:10290000324621464046FFF770FF013000F0A480B8
:10291000099B534409933B78002B00F09D800023D2
:102920004FF0FF32CDE90523049307938DF8533020
:102930001A932F46052217F8011B5048FDF768FC33
:10294000049BD0B9D90644BF20228DF853201A0722
:1029500044BF2B228DF853202A782A2A15D0079AB3
:102960002F4600200A25394611F8013B303B092B40
:102970004DD9B8B10FE02F46B8E7404A801A0BFA9C
:1029800000F0184304903D46D3E7039A111D1268E6
:102990000391002A01DB079204E0524243F0020354
:1029A000079204933B782E2B0CD17B782A2B33D1C2
:1029B000039B1A1D1B680392002BB8BF4FF0FF3317
:1029C000023705932E4D397803222846FDF720FC67
:1029D00038B14023401B03FA00F0049B0343013746
:1029E0000493397827488DF8281006227E1CFDF7BD
:1029F0000FFC002838D0244B13BB039B073323F074
:102A0000070308330393099B4B4409936DE705FBC8
:102A1000023201200F46A6E700230137059319462D
:102A20000A25384610F8012B303A092A03D9002B21
:102A3000C8D00591C6E705FB012101230746F0E751
:102A400003AB00932246114B04A94046AFF300802C
:102A5000B0F1FF3F8146D6D1A3895B063FF535AF84
:102A600009981DB0BDE8F08F03AB00932246074BD9
:102A700004A9404600F082F8EAE700BF623000088F
:102A8000683000086C30000800000000EB270008E8
:102A90002DE9F04791461F468A680B69DDF82080D2
:102AA0009342B8BF1346C9F8003091F84320064658
:102AB0000C4612B10133C9F800302368990642BFB1
:102AC000D9F800300233C9F80030256815F0060542
:102AD00007D104F1190AE368D9F800209B1AAB4228
:102AE00028DC94F843302268003318BF0123920693
:102AF0002DD404F1430239463046C047013020D07E
:102B00002368E568D9F8002003F00603042B08BF0A
:102B1000AD1AA36822690CBF25EAE575002593422A
:102B2000C4BF9B1AED184FF000091A344D451AD155
:102B3000002008E00123524639463046C0470130A4
:102B400003D14FF0FF30BDE8F0870135C3E7E1184E
:102B50005A1C302081F84300224494F8451082F832
:102B600043100233C5E70123224639463046C047A9
:102B70000130E6D009F10109D8E700002DE9F04362
:102B800001F1430C0C46097E85B06E2917460646B6
:102B900098460C9A00F0B38022D8632936D00AD820
:102BA000002900F0B980582900F0838004F1420523
:102BB00084F8421032E0642901D06929F6D12068F6
:102BC0001368050603F104012AD51B681160002B68
:102BD00003DA2D225B4284F843206F480A2239E051
:102BE000732900F09D8008D86F2920D07029DDD18D
:102BF000236843F02003236003E0752917D0782968
:102C0000D4D1782384F84530644855E01368191D01
:102C10001B68116004F1420584F8423001238CE006
:102C20001B68116010F0400F18BF1BB2CFE713688C
:102C30002568181D1060280601D51B6802E068068B
:102C4000FBD51B8854486F2914BF0A220822002193
:102C500084F843106568A560002DC0F29580216856
:102C600021F004012160002B3DD1002D40F08E8029
:102C70006546082A0BD12368DB0708D523696268FB
:102C80009A42DEBF302305F8013C05F1FF35ACEB7D
:102C900005032361CDF800803B4603AA2146304658
:102CA000FFF7F6FE01304DD14FF0FF3005B0BDE823
:102CB000F083394884F84510136821681D1D1B688E
:102CC00015600A060BD5CA0744BF41F020012160F8
:102CD0001BB9226822F0200222601022B7E74D06BD
:102CE00048BF9BB2EFE76546B3FBF2F102FB11333D
:102CF000C35C05F8013D0B460029F5D1B9E713681F
:102D000025686169181D106028061B6801D51960C7
:102D100002E06A06FBD51980002323616546B9E706
:102D20001368191D11601D68626800212846FDF7AF
:102D30006FFA08B1401B606063682361002384F868
:102D40004330A7E723692A4639463046C047013059
:102D5000AAD023689B0713D4E068039B9842B8BFAE
:102D60001846A3E701234A4639463046C04701309A
:102D70009AD00135E368039A9B1AAB42F2DCEBE789
:102D8000002504F11909F5E7002BACD1037884F88C
:102D9000423004F142056CE77330000884300008CB
:102DA00049B1FF2A85BF8A2303600A704FF0FF30C4
:102DB00098BF012070470846704710B5431E0A446B
:102DC000914200D110BD11F8014B03F8014FF7E714
:102DD000884210B501EB020307D8421E99420AD07F
:102DE00011F8014B02F8014FF8E78342F5D9811839
:102DF000D21AD34200D110BD13F8014D01F8014D94
:102E0000F7E7000038B50546002945D051F8043CE5
:102E10000C1F002BB8BFE41800F0D2F81F4A13684B
:102E2000104633B9636014602846BDE8384000F0AE
:102E3000C8B8A3420CD921686218934204BF1A682B
:102E40005B68636004BF521822600460ECE71346BD
:102E50005A680AB1A242FAD919685818A0420BD18F
:102E600020680144581882421960DDD11068526808
:102E70005A6001441960D7E702D90C232B60D3E7CD
:102E8000206821188A4204BF11685268626004BF3A
:102E9000091821605C60C7E738BD00BF0002002050
:102EA00070B5CD1C25F0030508350C2D38BF0C2559
:102EB000002D064601DBA94203D90C233360002014
:102EC00070BD00F07DF8214A1468214691B9204C6C
:102ED00023681BB9304600F063F82060294630466D
:102EE00000F05EF8431C24D10C233360304600F020
:102EF00068F8E4E70B685B1B18D40B2B0FD90B6049
:102F0000CD50CC18304600F05CF804F10B00231DC6
:102F100020F00700C31AD3D05A42E250D0E78C42C7
:102F20004B6816BF636013600C46EBE70C464968BC
:102F3000CCE7C41C24F00304A04205D0211A30467B
:102F400000F02EF80130CFD02560DBE70002002032
:102F500004020020F8B5074614460E4621B9114672
:102F6000BDE8F840FFF79CBF22B9FFF74BFF2546AD
:102F70002846F8BD00F026F8A0420FD22146384678
:102F8000FFF78EFF05460028F2D031462246FFF7B4
:102F900014FF31463846FFF735FFE9E73546E7E7E6
:102FA00038B5064C0023054608462360FFF7A4FA0F
:102FB000431C02D1236803B12B6038BD6403002099
:102FC0007047704751F8043C181F002BBCBF0B58CA
:102FD000C0187047F8B500BFF8BC08BC9E467047E3
:0C2FE000F8B500BFF8BC08BC9E46704766
:102FEC0002030405060708090A0B0C0D0E0F10103E
:102FFC000102030405060708090A0B0C0D0E0F103D
:10300C00000000000000000001020304060708098C
:10301C00000000000102030453706C697473203DBE
:10302C002025690A00000000536572766F000000CD
:10303C00536572766F203D20256900004661626CF5
:10304C006162204155444F210A0D00004300504F4E
:10305C00534958002E00232D302B2000686C4C0057
:10306C00656667454647003031323334353637387C
:10307C0039414243444546003031323334353637DA
:10308C0038396162636465660000202020202020AE
:10309C0020202028282828282020202020202020FC
:1030AC0020202020202020202020881010101010FC
:1030BC00101010101010101010100404040404044C
:1030CC00040404041010101010101041414141412F
:1030DC004101010101010101010101010101010194
:1030EC000101010101101010101010424242424225
:1030FC004202020202020202020202020202020264
:10310C000202020202101010102000000000000049
:10311C0000000000000000000000000000000000A3
:10312C000000000000000000000000000000000093
:10313C000000000000000000000000000000000083
:10314C000000000000000000000000000000000073
:10315C000000000000000000000000000000000063
:10316C000000000000000000000000000000000053
:10317C000000000000000000000000000000000043
:0C318C0000000000000000000000000037
:04319800C501000865
:04319C00A101000885
:1031A000010000001000000000127A001000002052
:1031B000000000000000000000000000000000000F
:1031C00000000000000000000000000000000000FF
:1031D00000000000000000000000000000000000EF
:1031E00000000000000000000000000000000000DF
:1031F00000000000000000000000000000000000CF
:1032000000000000000000000000000000000000BE
:10321000430000000000000000000000000000006B
:10322000000000000000000000000000000000009E
:10323000430000000000000000000000000000004B
:10324000000000000000000000000000000000007E
:10325000430000000000000000000000000000002B
:10326000000000000000000000000000000000005E
:10327000430000000000000000000000000000000B
:10328000000000000000000000000000000000003E
:1032900043000000000000000000000000000000EB
:1032A000000000000000000000000000000000001E
:1032B00043000000000000000000000000000000CB
:1032C00000000000000000000000000000000000FE
:1032D00043000000000000000000000000000000AB
:1032E00000000000000000000000000000000000DE
:1032F000A12D0008C7270008000000009530000835
:103300006030000867300008673000086730000848
:103310006730000867300008673000086730000831
:103320006730000867300008FFFFFFFFFFFFFFFF67
:10333000FFFFFFFFFFFF0000010041534349490029
:10334000000000000000000000000000000000007D
:103350000000000000000000000041534349490004
:10336000000000000000000000000000000000005D
:0C33700000000000000000000000000051
:040000050800259D2D
:00000001FF
